{
  "_format": "hh-sol-artifact-1",
  "contractName": "Memories",
  "sourceName": "contracts/Lock.sol",
  "address": "0x7E212b8F281CaC1d441556932D4a48b5F045bADD",
  "abi": [
    {
      "inputs": [],
      "stateMutability": "nonpayable",
      "type": "constructor"
    },
    {
      "inputs": [
        {
          "internalType": "address",
          "name": "sender",
          "type": "address"
        },
        {
          "internalType": "uint256",
          "name": "tokenId",
          "type": "uint256"
        },
        {
          "internalType": "address",
          "name": "owner",
          "type": "address"
        }
      ],
      "name": "ERC721IncorrectOwner",
      "type": "error"
    },
    {
      "inputs": [
        {
          "internalType": "address",
          "name": "operator",
          "type": "address"
        },
        {
          "internalType": "uint256",
          "name": "tokenId",
          "type": "uint256"
        }
      ],
      "name": "ERC721InsufficientApproval",
      "type": "error"
    },
    {
      "inputs": [
        {
          "internalType": "address",
          "name": "approver",
          "type": "address"
        }
      ],
      "name": "ERC721InvalidApprover",
      "type": "error"
    },
    {
      "inputs": [
        {
          "internalType": "address",
          "name": "operator",
          "type": "address"
        }
      ],
      "name": "ERC721InvalidOperator",
      "type": "error"
    },
    {
      "inputs": [
        {
          "internalType": "address",
          "name": "owner",
          "type": "address"
        }
      ],
      "name": "ERC721InvalidOwner",
      "type": "error"
    },
    {
      "inputs": [
        {
          "internalType": "address",
          "name": "receiver",
          "type": "address"
        }
      ],
      "name": "ERC721InvalidReceiver",
      "type": "error"
    },
    {
      "inputs": [
        {
          "internalType": "address",
          "name": "sender",
          "type": "address"
        }
      ],
      "name": "ERC721InvalidSender",
      "type": "error"
    },
    {
      "inputs": [
        {
          "internalType": "uint256",
          "name": "tokenId",
          "type": "uint256"
        }
      ],
      "name": "ERC721NonexistentToken",
      "type": "error"
    },
    {
      "anonymous": false,
      "inputs": [
        {
          "indexed": true,
          "internalType": "address",
          "name": "owner",
          "type": "address"
        },
        {
          "indexed": true,
          "internalType": "address",
          "name": "approved",
          "type": "address"
        },
        {
          "indexed": true,
          "internalType": "uint256",
          "name": "tokenId",
          "type": "uint256"
        }
      ],
      "name": "Approval",
      "type": "event"
    },
    {
      "anonymous": false,
      "inputs": [
        {
          "indexed": true,
          "internalType": "address",
          "name": "owner",
          "type": "address"
        },
        {
          "indexed": true,
          "internalType": "address",
          "name": "operator",
          "type": "address"
        },
        {
          "indexed": false,
          "internalType": "bool",
          "name": "approved",
          "type": "bool"
        }
      ],
      "name": "ApprovalForAll",
      "type": "event"
    },
    {
      "anonymous": false,
      "inputs": [
        {
          "indexed": false,
          "internalType": "uint256",
          "name": "_fromTokenId",
          "type": "uint256"
        },
        {
          "indexed": false,
          "internalType": "uint256",
          "name": "_toTokenId",
          "type": "uint256"
        }
      ],
      "name": "BatchMetadataUpdate",
      "type": "event"
    },
    {
      "anonymous": false,
      "inputs": [
        {
          "indexed": false,
          "internalType": "uint256",
          "name": "_tokenId",
          "type": "uint256"
        }
      ],
      "name": "MetadataUpdate",
      "type": "event"
    },
    {
      "anonymous": false,
      "inputs": [
        {
          "indexed": true,
          "internalType": "address",
          "name": "from",
          "type": "address"
        },
        {
          "indexed": true,
          "internalType": "address",
          "name": "to",
          "type": "address"
        },
        {
          "indexed": true,
          "internalType": "uint256",
          "name": "tokenId",
          "type": "uint256"
        }
      ],
      "name": "Transfer",
      "type": "event"
    },
    {
      "inputs": [
        {
          "internalType": "address",
          "name": "to",
          "type": "address"
        },
        {
          "internalType": "uint256",
          "name": "tokenId",
          "type": "uint256"
        }
      ],
      "name": "approve",
      "outputs": [],
      "stateMutability": "nonpayable",
      "type": "function"
    },
    {
      "inputs": [
        {
          "internalType": "address",
          "name": "owner",
          "type": "address"
        }
      ],
      "name": "balanceOf",
      "outputs": [
        {
          "internalType": "uint256",
          "name": "",
          "type": "uint256"
        }
      ],
      "stateMutability": "view",
      "type": "function"
    },
    {
      "inputs": [
        {
          "internalType": "uint256",
          "name": "tokenId",
          "type": "uint256"
        }
      ],
      "name": "getApproved",
      "outputs": [
        {
          "internalType": "address",
          "name": "",
          "type": "address"
        }
      ],
      "stateMutability": "view",
      "type": "function"
    },
    {
      "inputs": [
        {
          "internalType": "string",
          "name": "_tokenURI",
          "type": "string"
        }
      ],
      "name": "hasTokenBeenMinted",
      "outputs": [
        {
          "internalType": "bool",
          "name": "",
          "type": "bool"
        }
      ],
      "stateMutability": "view",
      "type": "function"
    },
    {
      "inputs": [
        {
          "internalType": "address",
          "name": "owner",
          "type": "address"
        },
        {
          "internalType": "address",
          "name": "operator",
          "type": "address"
        }
      ],
      "name": "isApprovedForAll",
      "outputs": [
        {
          "internalType": "bool",
          "name": "",
          "type": "bool"
        }
      ],
      "stateMutability": "view",
      "type": "function"
    },
    {
      "inputs": [],
      "name": "name",
      "outputs": [
        {
          "internalType": "string",
          "name": "",
          "type": "string"
        }
      ],
      "stateMutability": "view",
      "type": "function"
    },
    {
      "inputs": [
        {
          "internalType": "uint256",
          "name": "tokenId",
          "type": "uint256"
        }
      ],
      "name": "ownerOf",
      "outputs": [
        {
          "internalType": "address",
          "name": "",
          "type": "address"
        }
      ],
      "stateMutability": "view",
      "type": "function"
    },
    {
      "inputs": [
        {
          "internalType": "address",
          "name": "from",
          "type": "address"
        },
        {
          "internalType": "address",
          "name": "to",
          "type": "address"
        },
        {
          "internalType": "uint256",
          "name": "tokenId",
          "type": "uint256"
        }
      ],
      "name": "safeTransferFrom",
      "outputs": [],
      "stateMutability": "nonpayable",
      "type": "function"
    },
    {
      "inputs": [
        {
          "internalType": "address",
          "name": "from",
          "type": "address"
        },
        {
          "internalType": "address",
          "name": "to",
          "type": "address"
        },
        {
          "internalType": "uint256",
          "name": "tokenId",
          "type": "uint256"
        },
        {
          "internalType": "bytes",
          "name": "data",
          "type": "bytes"
        }
      ],
      "name": "safeTransferFrom",
      "outputs": [],
      "stateMutability": "nonpayable",
      "type": "function"
    },
    {
      "inputs": [
        {
          "internalType": "address",
          "name": "operator",
          "type": "address"
        },
        {
          "internalType": "bool",
          "name": "approved",
          "type": "bool"
        }
      ],
      "name": "setApprovalForAll",
      "outputs": [],
      "stateMutability": "nonpayable",
      "type": "function"
    },
    {
      "inputs": [
        {
          "internalType": "bytes4",
          "name": "interfaceId",
          "type": "bytes4"
        }
      ],
      "name": "supportsInterface",
      "outputs": [
        {
          "internalType": "bool",
          "name": "",
          "type": "bool"
        }
      ],
      "stateMutability": "view",
      "type": "function"
    },
    {
      "inputs": [],
      "name": "symbol",
      "outputs": [
        {
          "internalType": "string",
          "name": "",
          "type": "string"
        }
      ],
      "stateMutability": "view",
      "type": "function"
    },
    {
      "inputs": [
        {
          "internalType": "uint256",
          "name": "tokenId",
          "type": "uint256"
        }
      ],
      "name": "tokenURI",
      "outputs": [
        {
          "internalType": "string",
          "name": "",
          "type": "string"
        }
      ],
      "stateMutability": "view",
      "type": "function"
    },
    {
      "inputs": [
        {
          "internalType": "address",
          "name": "from",
          "type": "address"
        },
        {
          "internalType": "address",
          "name": "to",
          "type": "address"
        },
        {
          "internalType": "uint256",
          "name": "tokenId",
          "type": "uint256"
        }
      ],
      "name": "transferFrom",
      "outputs": [],
      "stateMutability": "nonpayable",
      "type": "function"
    },
    {
      "inputs": [
        {
          "internalType": "string",
          "name": "_tokenURI",
          "type": "string"
        }
      ],
      "name": "vote",
      "outputs": [],
      "stateMutability": "nonpayable",
      "type": "function"
    }
  ],
  "bytecode": "0x608060405273fc59473ed5a906fbfe9fb9b743f737f494ff67e9600d60006101000a81548173ffffffffffffffffffffffffffffffffffffffff021916908373ffffffffffffffffffffffffffffffffffffffff1602179055503480156200006657600080fd5b506040518060400160405280600981526020017f50686f746f4d696e7400000000000000000000000000000000000000000000008152506040518060400160405280600281526020017f504d0000000000000000000000000000000000000000000000000000000000008152508160009081620000e4919062000381565b508060019081620000f6919062000381565b505050600560088190555062000468565b600081519050919050565b7f4e487b7100000000000000000000000000000000000000000000000000000000600052604160045260246000fd5b7f4e487b7100000000000000000000000000000000000000000000000000000000600052602260045260246000fd5b600060028204905060018216806200018957607f821691505b6020821081036200019f576200019e62000141565b5b50919050565b60008190508160005260206000209050919050565b60006020601f8301049050919050565b600082821b905092915050565b600060088302620002097fffffffffffffffffffffffffffffffffffffffffffffffffffffffffffffffff82620001ca565b620002158683620001ca565b95508019841693508086168417925050509392505050565b6000819050919050565b6000819050919050565b6000620002626200025c62000256846200022d565b62000237565b6200022d565b9050919050565b6000819050919050565b6200027e8362000241565b620002966200028d8262000269565b848454620001d7565b825550505050565b600090565b620002ad6200029e565b620002ba81848462000273565b505050565b5b81811015620002e257620002d6600082620002a3565b600181019050620002c0565b5050565b601f8211156200033157620002fb81620001a5565b6200030684620001ba565b8101602085101562000316578190505b6200032e6200032585620001ba565b830182620002bf565b50505b505050565b600082821c905092915050565b6000620003566000198460080262000336565b1980831691505092915050565b600062000371838362000343565b9150826002028217905092915050565b6200038c8262000107565b67ffffffffffffffff811115620003a857620003a762000112565b5b620003b4825462000170565b620003c1828285620002e6565b600060209050601f831160018114620003f95760008415620003e4578287015190505b620003f0858262000363565b86555062000460565b601f1984166200040986620001a5565b60005b8281101562000433578489015182556001820191506020850194506020810190506200040c565b868310156200045357848901516200044f601f89168262000343565b8355505b6001600288020188555050505b505050505050565b6127c580620004786000396000f3fe608060405234801561001057600080fd5b50600436106100f55760003560e01c806370a0823111610097578063b88d4fde11610066578063b88d4fde14610296578063c87b56dd146102b2578063e985e9c5146102e2578063fc36e15b14610312576100f5565b806370a08231146101fc57806395d89b411461022c5780639fbfd36d1461024a578063a22cb4651461027a576100f5565b8063095ea7b3116100d3578063095ea7b31461017857806323b872dd1461019457806342842e0e146101b05780636352211e146101cc576100f5565b806301ffc9a7146100fa57806306fdde031461012a578063081812fc14610148575b600080fd5b610114600480360381019061010f9190611acb565b61032e565b6040516101219190611b13565b60405180910390f35b61013261038f565b60405161013f9190611bbe565b60405180910390f35b610162600480360381019061015d9190611c16565b610421565b60405161016f9190611c84565b60405180910390f35b610192600480360381019061018d9190611ccb565b61043d565b005b6101ae60048036038101906101a99190611d0b565b610453565b005b6101ca60048036038101906101c59190611d0b565b610555565b005b6101e660048036038101906101e19190611c16565b610575565b6040516101f39190611c84565b60405180910390f35b61021660048036038101906102119190611d5e565b610587565b6040516102239190611d9a565b60405180910390f35b610234610641565b6040516102419190611bbe565b60405180910390f35b610264600480360381019061025f9190611eea565b6106d3565b6040516102719190611b13565b60405180910390f35b610294600480360381019061028f9190611f5f565b610708565b005b6102b060048036038101906102ab9190612040565b61071e565b005b6102cc60048036038101906102c79190611c16565b61073b565b6040516102d99190611bbe565b60405180910390f35b6102fc60048036038101906102f791906120c3565b61084e565b6040516103099190611b13565b60405180910390f35b61032c60048036038101906103279190611eea565b6108e2565b005b6000634906490660e01b7bffffffffffffffffffffffffffffffffffffffffffffffffffffffff1916827bffffffffffffffffffffffffffffffffffffffffffffffffffffffff19161480610388575061038782610b77565b5b9050919050565b60606000805461039e90612132565b80601f01602080910402602001604051908101604052809291908181526020018280546103ca90612132565b80156104175780601f106103ec57610100808354040283529160200191610417565b820191906000526020600020905b8154815290600101906020018083116103fa57829003601f168201915b5050505050905090565b600061042c82610c59565b5061043682610ce1565b9050919050565b61044f828261044a610d1e565b610d26565b5050565b600073ffffffffffffffffffffffffffffffffffffffff168273ffffffffffffffffffffffffffffffffffffffff16036104c55760006040517f64a0ae920000000000000000000000000000000000000000000000000000000081526004016104bc9190611c84565b60405180910390fd5b60006104d983836104d4610d1e565b610d38565b90508373ffffffffffffffffffffffffffffffffffffffff168173ffffffffffffffffffffffffffffffffffffffff161461054f578382826040517f64283d7b00000000000000000000000000000000000000000000000000000000815260040161054693929190612163565b60405180910390fd5b50505050565b6105708383836040518060200160405280600081525061071e565b505050565b600061058082610c59565b9050919050565b60008073ffffffffffffffffffffffffffffffffffffffff168273ffffffffffffffffffffffffffffffffffffffff16036105fa5760006040517f89c62b640000000000000000000000000000000000000000000000000000000081526004016105f19190611c84565b60405180910390fd5b600360008373ffffffffffffffffffffffffffffffffffffffff1673ffffffffffffffffffffffffffffffffffffffff168152602001908152602001600020549050919050565b60606001805461065090612132565b80601f016020809104026020016040519081016040528092919081815260200182805461067c90612132565b80156106c95780601f1061069e576101008083540402835291602001916106c9565b820191906000526020600020905b8154815290600101906020018083116106ac57829003601f168201915b5050505050905090565b6000600b826040516106e591906121d6565b908152602001604051809103902060009054906101000a900460ff169050919050565b61071a610713610d1e565b8383610f52565b5050565b610729848484610453565b610735848484846110c1565b50505050565b606061074682610c59565b50600060066000848152602001908152602001600020805461076790612132565b80601f016020809104026020016040519081016040528092919081815260200182805461079390612132565b80156107e05780601f106107b5576101008083540402835291602001916107e0565b820191906000526020600020905b8154815290600101906020018083116107c357829003601f168201915b5050505050905060006107f1611278565b90506000815103610806578192505050610849565b60008251111561083b5780826040516020016108239291906121ed565b60405160208183030381529060405292505050610849565b6108448461128f565b925050505b919050565b6000600560008473ffffffffffffffffffffffffffffffffffffffff1673ffffffffffffffffffffffffffffffffffffffff16815260200190815260200160002060008373ffffffffffffffffffffffffffffffffffffffff1673ffffffffffffffffffffffffffffffffffffffff16815260200190815260200160002060009054906101000a900460ff16905092915050565b600a60003373ffffffffffffffffffffffffffffffffffffffff1673ffffffffffffffffffffffffffffffffffffffff1681526020019081526020016000208160405161092f91906121d6565b908152602001604051809103902060009054906101000a900460ff161561098b576040517f08c379a00000000000000000000000000000000000000000000000000000000081526004016109829061225d565b60405180910390fd5b600b8160405161099b91906121d6565b908152602001604051809103902060009054906101000a900460ff16156109f7576040517f08c379a00000000000000000000000000000000000000000000000000000000081526004016109ee906122c9565b60405180910390fd5b6001600982604051610a0991906121d6565b90815260200160405180910390206000828254610a269190612318565b925050819055506000600982604051610a3f91906121d6565b90815260200160405180910390205490506001600a60003373ffffffffffffffffffffffffffffffffffffffff1673ffffffffffffffffffffffffffffffffffffffff16815260200190815260200160002083604051610a9f91906121d6565b908152602001604051809103902060006101000a81548160ff0219169083151502179055506032600854610ad3919061234c565b606482610ae0919061234c565b10610b73576000600754905060076000815480929190610aff9061238e565b9190505550610b30600d60009054906101000a900473ffffffffffffffffffffffffffffffffffffffff16826112f8565b610b3a81846113f1565b6001600b84604051610b4c91906121d6565b908152602001604051809103902060006101000a81548160ff021916908315150217905550505b5050565b60007f80ac58cd000000000000000000000000000000000000000000000000000000007bffffffffffffffffffffffffffffffffffffffffffffffffffffffff1916827bffffffffffffffffffffffffffffffffffffffffffffffffffffffff19161480610c4257507f5b5e139f000000000000000000000000000000000000000000000000000000007bffffffffffffffffffffffffffffffffffffffffffffffffffffffff1916827bffffffffffffffffffffffffffffffffffffffffffffffffffffffff1916145b80610c525750610c518261144d565b5b9050919050565b600080610c65836114b7565b9050600073ffffffffffffffffffffffffffffffffffffffff168173ffffffffffffffffffffffffffffffffffffffff1603610cd857826040517f7e273289000000000000000000000000000000000000000000000000000000008152600401610ccf9190611d9a565b60405180910390fd5b80915050919050565b60006004600083815260200190815260200160002060009054906101000a900473ffffffffffffffffffffffffffffffffffffffff169050919050565b600033905090565b610d3383838360016114f4565b505050565b600080610d44846114b7565b9050600073ffffffffffffffffffffffffffffffffffffffff168373ffffffffffffffffffffffffffffffffffffffff1614610d8657610d858184866116b9565b5b600073ffffffffffffffffffffffffffffffffffffffff168173ffffffffffffffffffffffffffffffffffffffff1614610e1757610dc86000856000806114f4565b6001600360008373ffffffffffffffffffffffffffffffffffffffff1673ffffffffffffffffffffffffffffffffffffffff168152602001908152602001600020600082825403925050819055505b600073ffffffffffffffffffffffffffffffffffffffff168573ffffffffffffffffffffffffffffffffffffffff1614610e9a576001600360008773ffffffffffffffffffffffffffffffffffffffff1673ffffffffffffffffffffffffffffffffffffffff168152602001908152602001600020600082825401925050819055505b846002600086815260200190815260200160002060006101000a81548173ffffffffffffffffffffffffffffffffffffffff021916908373ffffffffffffffffffffffffffffffffffffffff160217905550838573ffffffffffffffffffffffffffffffffffffffff168273ffffffffffffffffffffffffffffffffffffffff167fddf252ad1be2c89b69c2b068fc378daa952ba7f163c4a11628f55a4df523b3ef60405160405180910390a4809150509392505050565b600073ffffffffffffffffffffffffffffffffffffffff168273ffffffffffffffffffffffffffffffffffffffff1603610fc357816040517f5b08ba18000000000000000000000000000000000000000000000000000000008152600401610fba9190611c84565b60405180910390fd5b80600560008573ffffffffffffffffffffffffffffffffffffffff1673ffffffffffffffffffffffffffffffffffffffff16815260200190815260200160002060008473ffffffffffffffffffffffffffffffffffffffff1673ffffffffffffffffffffffffffffffffffffffff16815260200190815260200160002060006101000a81548160ff0219169083151502179055508173ffffffffffffffffffffffffffffffffffffffff168373ffffffffffffffffffffffffffffffffffffffff167f17307eab39ab6107e8899845ad3d59bd9653f200f220920489ca2b5937696c31836040516110b49190611b13565b60405180910390a3505050565b60008373ffffffffffffffffffffffffffffffffffffffff163b1115611272578273ffffffffffffffffffffffffffffffffffffffff1663150b7a02611105610d1e565b8685856040518563ffffffff1660e01b8152600401611127949392919061242b565b6020604051808303816000875af192505050801561116357506040513d601f19601f82011682018060405250810190611160919061248c565b60015b6111e7573d8060008114611193576040519150601f19603f3d011682016040523d82523d6000602084013e611198565b606091505b5060008151036111df57836040517f64a0ae920000000000000000000000000000000000000000000000000000000081526004016111d69190611c84565b60405180910390fd5b805181602001fd5b63150b7a0260e01b7bffffffffffffffffffffffffffffffffffffffffffffffffffffffff1916817bffffffffffffffffffffffffffffffffffffffffffffffffffffffff19161461127057836040517f64a0ae920000000000000000000000000000000000000000000000000000000081526004016112679190611c84565b60405180910390fd5b505b50505050565b606060405180602001604052806000815250905090565b606061129a82610c59565b5060006112a5611278565b905060008151116112c557604051806020016040528060008152506112f0565b806112cf8461177d565b6040516020016112e09291906121ed565b6040516020818303038152906040525b915050919050565b600073ffffffffffffffffffffffffffffffffffffffff168273ffffffffffffffffffffffffffffffffffffffff160361136a5760006040517f64a0ae920000000000000000000000000000000000000000000000000000000081526004016113619190611c84565b60405180910390fd5b600061137883836000610d38565b9050600073ffffffffffffffffffffffffffffffffffffffff168173ffffffffffffffffffffffffffffffffffffffff16146113ec5760006040517f73c6ac6e0000000000000000000000000000000000000000000000000000000081526004016113e39190611c84565b60405180910390fd5b505050565b806006600084815260200190815260200160002090816114119190612665565b507ff8e1a15aba9398e019f0b49df1a4fde98ee17ae345cb5f6b5e2c27f5033e8ce7826040516114419190611d9a565b60405180910390a15050565b60007f01ffc9a7000000000000000000000000000000000000000000000000000000007bffffffffffffffffffffffffffffffffffffffffffffffffffffffff1916827bffffffffffffffffffffffffffffffffffffffffffffffffffffffff1916149050919050565b60006002600083815260200190815260200160002060009054906101000a900473ffffffffffffffffffffffffffffffffffffffff169050919050565b808061152d5750600073ffffffffffffffffffffffffffffffffffffffff168273ffffffffffffffffffffffffffffffffffffffff1614155b1561166157600061153d84610c59565b9050600073ffffffffffffffffffffffffffffffffffffffff168373ffffffffffffffffffffffffffffffffffffffff16141580156115a857508273ffffffffffffffffffffffffffffffffffffffff168173ffffffffffffffffffffffffffffffffffffffff1614155b80156115bb57506115b9818461084e565b155b156115fd57826040517fa9fbf51f0000000000000000000000000000000000000000000000000000000081526004016115f49190611c84565b60405180910390fd5b811561165f57838573ffffffffffffffffffffffffffffffffffffffff168273ffffffffffffffffffffffffffffffffffffffff167f8c5be1e5ebec7d5bd14f71427d1e84f3dd0314c0f7b2291e5b200ac8c7c3b92560405160405180910390a45b505b836004600085815260200190815260200160002060006101000a81548173ffffffffffffffffffffffffffffffffffffffff021916908373ffffffffffffffffffffffffffffffffffffffff16021790555050505050565b6116c483838361184b565b61177857600073ffffffffffffffffffffffffffffffffffffffff168373ffffffffffffffffffffffffffffffffffffffff160361173957806040517f7e2732890000000000000000000000000000000000000000000000000000000081526004016117309190611d9a565b60405180910390fd5b81816040517f177e802f00000000000000000000000000000000000000000000000000000000815260040161176f929190612737565b60405180910390fd5b505050565b60606000600161178c8461190c565b01905060008167ffffffffffffffff8111156117ab576117aa611dbf565b5b6040519080825280601f01601f1916602001820160405280156117dd5781602001600182028036833780820191505090505b509050600082602001820190505b600115611840578080600190039150507f3031323334353637383961626364656600000000000000000000000000000000600a86061a8153600a858161183457611833612760565b5b049450600085036117eb575b819350505050919050565b60008073ffffffffffffffffffffffffffffffffffffffff168373ffffffffffffffffffffffffffffffffffffffff161415801561190357508273ffffffffffffffffffffffffffffffffffffffff168473ffffffffffffffffffffffffffffffffffffffff1614806118c457506118c3848461084e565b5b8061190257508273ffffffffffffffffffffffffffffffffffffffff166118ea83610ce1565b73ffffffffffffffffffffffffffffffffffffffff16145b5b90509392505050565b600080600090507a184f03e93ff9f4daa797ed6e38ed64bf6a1f010000000000000000831061196a577a184f03e93ff9f4daa797ed6e38ed64bf6a1f01000000000000000083816119605761195f612760565b5b0492506040810190505b6d04ee2d6d415b85acef810000000083106119a7576d04ee2d6d415b85acef8100000000838161199d5761199c612760565b5b0492506020810190505b662386f26fc1000083106119d657662386f26fc1000083816119cc576119cb612760565b5b0492506010810190505b6305f5e10083106119ff576305f5e10083816119f5576119f4612760565b5b0492506008810190505b6127108310611a24576127108381611a1a57611a19612760565b5b0492506004810190505b60648310611a475760648381611a3d57611a3c612760565b5b0492506002810190505b600a8310611a56576001810190505b80915050919050565b6000604051905090565b600080fd5b600080fd5b60007fffffffff0000000000000000000000000000000000000000000000000000000082169050919050565b611aa881611a73565b8114611ab357600080fd5b50565b600081359050611ac581611a9f565b92915050565b600060208284031215611ae157611ae0611a69565b5b6000611aef84828501611ab6565b91505092915050565b60008115159050919050565b611b0d81611af8565b82525050565b6000602082019050611b286000830184611b04565b92915050565b600081519050919050565b600082825260208201905092915050565b60005b83811015611b68578082015181840152602081019050611b4d565b60008484015250505050565b6000601f19601f8301169050919050565b6000611b9082611b2e565b611b9a8185611b39565b9350611baa818560208601611b4a565b611bb381611b74565b840191505092915050565b60006020820190508181036000830152611bd88184611b85565b905092915050565b6000819050919050565b611bf381611be0565b8114611bfe57600080fd5b50565b600081359050611c1081611bea565b92915050565b600060208284031215611c2c57611c2b611a69565b5b6000611c3a84828501611c01565b91505092915050565b600073ffffffffffffffffffffffffffffffffffffffff82169050919050565b6000611c6e82611c43565b9050919050565b611c7e81611c63565b82525050565b6000602082019050611c996000830184611c75565b92915050565b611ca881611c63565b8114611cb357600080fd5b50565b600081359050611cc581611c9f565b92915050565b60008060408385031215611ce257611ce1611a69565b5b6000611cf085828601611cb6565b9250506020611d0185828601611c01565b9150509250929050565b600080600060608486031215611d2457611d23611a69565b5b6000611d3286828701611cb6565b9350506020611d4386828701611cb6565b9250506040611d5486828701611c01565b9150509250925092565b600060208284031215611d7457611d73611a69565b5b6000611d8284828501611cb6565b91505092915050565b611d9481611be0565b82525050565b6000602082019050611daf6000830184611d8b565b92915050565b600080fd5b600080fd5b7f4e487b7100000000000000000000000000000000000000000000000000000000600052604160045260246000fd5b611df782611b74565b810181811067ffffffffffffffff82111715611e1657611e15611dbf565b5b80604052505050565b6000611e29611a5f565b9050611e358282611dee565b919050565b600067ffffffffffffffff821115611e5557611e54611dbf565b5b611e5e82611b74565b9050602081019050919050565b82818337600083830152505050565b6000611e8d611e8884611e3a565b611e1f565b905082815260208101848484011115611ea957611ea8611dba565b5b611eb4848285611e6b565b509392505050565b600082601f830112611ed157611ed0611db5565b5b8135611ee1848260208601611e7a565b91505092915050565b600060208284031215611f0057611eff611a69565b5b600082013567ffffffffffffffff811115611f1e57611f1d611a6e565b5b611f2a84828501611ebc565b91505092915050565b611f3c81611af8565b8114611f4757600080fd5b50565b600081359050611f5981611f33565b92915050565b60008060408385031215611f7657611f75611a69565b5b6000611f8485828601611cb6565b9250506020611f9585828601611f4a565b9150509250929050565b600067ffffffffffffffff821115611fba57611fb9611dbf565b5b611fc382611b74565b9050602081019050919050565b6000611fe3611fde84611f9f565b611e1f565b905082815260208101848484011115611fff57611ffe611dba565b5b61200a848285611e6b565b509392505050565b600082601f83011261202757612026611db5565b5b8135612037848260208601611fd0565b91505092915050565b6000806000806080858703121561205a57612059611a69565b5b600061206887828801611cb6565b945050602061207987828801611cb6565b935050604061208a87828801611c01565b925050606085013567ffffffffffffffff8111156120ab576120aa611a6e565b5b6120b787828801612012565b91505092959194509250565b600080604083850312156120da576120d9611a69565b5b60006120e885828601611cb6565b92505060206120f985828601611cb6565b9150509250929050565b7f4e487b7100000000000000000000000000000000000000000000000000000000600052602260045260246000fd5b6000600282049050600182168061214a57607f821691505b60208210810361215d5761215c612103565b5b50919050565b60006060820190506121786000830186611c75565b6121856020830185611d8b565b6121926040830184611c75565b949350505050565b600081905092915050565b60006121b082611b2e565b6121ba818561219a565b93506121ca818560208601611b4a565b80840191505092915050565b60006121e282846121a5565b915081905092915050565b60006121f982856121a5565b915061220582846121a5565b91508190509392505050565b7f596f75206861766520616c726561647920766f74656400000000000000000000600082015250565b6000612247601683611b39565b915061225282612211565b602082019050919050565b600060208201905081810360008301526122768161223a565b9050919050565b7f546869732050686f746f20686173206265656e204d696e746564210000000000600082015250565b60006122b3601b83611b39565b91506122be8261227d565b602082019050919050565b600060208201905081810360008301526122e2816122a6565b9050919050565b7f4e487b7100000000000000000000000000000000000000000000000000000000600052601160045260246000fd5b600061232382611be0565b915061232e83611be0565b9250828201905080821115612346576123456122e9565b5b92915050565b600061235782611be0565b915061236283611be0565b925082820261237081611be0565b91508282048414831517612387576123866122e9565b5b5092915050565b600061239982611be0565b91507fffffffffffffffffffffffffffffffffffffffffffffffffffffffffffffffff82036123cb576123ca6122e9565b5b600182019050919050565b600081519050919050565b600082825260208201905092915050565b60006123fd826123d6565b61240781856123e1565b9350612417818560208601611b4a565b61242081611b74565b840191505092915050565b60006080820190506124406000830187611c75565b61244d6020830186611c75565b61245a6040830185611d8b565b818103606083015261246c81846123f2565b905095945050505050565b60008151905061248681611a9f565b92915050565b6000602082840312156124a2576124a1611a69565b5b60006124b084828501612477565b91505092915050565b60008190508160005260206000209050919050565b60006020601f8301049050919050565b600082821b905092915050565b60006008830261251b7fffffffffffffffffffffffffffffffffffffffffffffffffffffffffffffffff826124de565b61252586836124de565b95508019841693508086168417925050509392505050565b6000819050919050565b600061256261255d61255884611be0565b61253d565b611be0565b9050919050565b6000819050919050565b61257c83612547565b61259061258882612569565b8484546124eb565b825550505050565b600090565b6125a5612598565b6125b0818484612573565b505050565b5b818110156125d4576125c960008261259d565b6001810190506125b6565b5050565b601f821115612619576125ea816124b9565b6125f3846124ce565b81016020851015612602578190505b61261661260e856124ce565b8301826125b5565b50505b505050565b600082821c905092915050565b600061263c6000198460080261261e565b1980831691505092915050565b6000612655838361262b565b9150826002028217905092915050565b61266e82611b2e565b67ffffffffffffffff81111561268757612686611dbf565b5b6126918254612132565b61269c8282856125d8565b600060209050601f8311600181146126cf57600084156126bd578287015190505b6126c78582612649565b86555061272f565b601f1984166126dd866124b9565b60005b82811015612705578489015182556001820191506020850194506020810190506126e0565b86831015612722578489015161271e601f89168261262b565b8355505b6001600288020188555050505b505050505050565b600060408201905061274c6000830185611c75565b6127596020830184611d8b565b9392505050565b7f4e487b7100000000000000000000000000000000000000000000000000000000600052601260045260246000fdfea2646970667358221220d63886009ec815da0e977d1bc4a0e2fd2d24bc8efe6df7247cd7d42d0cf1a08464736f6c63430008150033",
  "linkReferences": {},
  "deployedLinkReferences": {}
}