{
  "_format": "hh-sol-artifact-1",
  "contractName": "Memories",
  "sourceName": "contracts/Lock.sol",
  "address": "0x8a024C97d0904A2856ed59A5cAFD8989F02f6504",
  "abi": [
    {
      "inputs": [],
      "stateMutability": "nonpayable",
      "type": "constructor"
    },
    {
      "inputs": [
        {
          "internalType": "address",
          "name": "sender",
          "type": "address"
        },
        {
          "internalType": "uint256",
          "name": "tokenId",
          "type": "uint256"
        },
        {
          "internalType": "address",
          "name": "owner",
          "type": "address"
        }
      ],
      "name": "ERC721IncorrectOwner",
      "type": "error"
    },
    {
      "inputs": [
        {
          "internalType": "address",
          "name": "operator",
          "type": "address"
        },
        {
          "internalType": "uint256",
          "name": "tokenId",
          "type": "uint256"
        }
      ],
      "name": "ERC721InsufficientApproval",
      "type": "error"
    },
    {
      "inputs": [
        {
          "internalType": "address",
          "name": "approver",
          "type": "address"
        }
      ],
      "name": "ERC721InvalidApprover",
      "type": "error"
    },
    {
      "inputs": [
        {
          "internalType": "address",
          "name": "operator",
          "type": "address"
        }
      ],
      "name": "ERC721InvalidOperator",
      "type": "error"
    },
    {
      "inputs": [
        {
          "internalType": "address",
          "name": "owner",
          "type": "address"
        }
      ],
      "name": "ERC721InvalidOwner",
      "type": "error"
    },
    {
      "inputs": [
        {
          "internalType": "address",
          "name": "receiver",
          "type": "address"
        }
      ],
      "name": "ERC721InvalidReceiver",
      "type": "error"
    },
    {
      "inputs": [
        {
          "internalType": "address",
          "name": "sender",
          "type": "address"
        }
      ],
      "name": "ERC721InvalidSender",
      "type": "error"
    },
    {
      "inputs": [
        {
          "internalType": "uint256",
          "name": "tokenId",
          "type": "uint256"
        }
      ],
      "name": "ERC721NonexistentToken",
      "type": "error"
    },
    {
      "anonymous": false,
      "inputs": [
        {
          "indexed": true,
          "internalType": "address",
          "name": "owner",
          "type": "address"
        },
        {
          "indexed": true,
          "internalType": "address",
          "name": "approved",
          "type": "address"
        },
        {
          "indexed": true,
          "internalType": "uint256",
          "name": "tokenId",
          "type": "uint256"
        }
      ],
      "name": "Approval",
      "type": "event"
    },
    {
      "anonymous": false,
      "inputs": [
        {
          "indexed": true,
          "internalType": "address",
          "name": "owner",
          "type": "address"
        },
        {
          "indexed": true,
          "internalType": "address",
          "name": "operator",
          "type": "address"
        },
        {
          "indexed": false,
          "internalType": "bool",
          "name": "approved",
          "type": "bool"
        }
      ],
      "name": "ApprovalForAll",
      "type": "event"
    },
    {
      "anonymous": false,
      "inputs": [
        {
          "indexed": false,
          "internalType": "uint256",
          "name": "_fromTokenId",
          "type": "uint256"
        },
        {
          "indexed": false,
          "internalType": "uint256",
          "name": "_toTokenId",
          "type": "uint256"
        }
      ],
      "name": "BatchMetadataUpdate",
      "type": "event"
    },
    {
      "anonymous": false,
      "inputs": [
        {
          "indexed": false,
          "internalType": "uint256",
          "name": "_tokenId",
          "type": "uint256"
        }
      ],
      "name": "MetadataUpdate",
      "type": "event"
    },
    {
      "anonymous": false,
      "inputs": [
        {
          "indexed": true,
          "internalType": "address",
          "name": "from",
          "type": "address"
        },
        {
          "indexed": true,
          "internalType": "address",
          "name": "to",
          "type": "address"
        },
        {
          "indexed": true,
          "internalType": "uint256",
          "name": "tokenId",
          "type": "uint256"
        }
      ],
      "name": "Transfer",
      "type": "event"
    },
    {
      "inputs": [
        {
          "internalType": "address",
          "name": "to",
          "type": "address"
        },
        {
          "internalType": "uint256",
          "name": "tokenId",
          "type": "uint256"
        }
      ],
      "name": "approve",
      "outputs": [],
      "stateMutability": "nonpayable",
      "type": "function"
    },
    {
      "inputs": [
        {
          "internalType": "address",
          "name": "owner",
          "type": "address"
        }
      ],
      "name": "balanceOf",
      "outputs": [
        {
          "internalType": "uint256",
          "name": "",
          "type": "uint256"
        }
      ],
      "stateMutability": "view",
      "type": "function"
    },
    {
      "inputs": [
        {
          "internalType": "uint256",
          "name": "tokenId",
          "type": "uint256"
        }
      ],
      "name": "getApproved",
      "outputs": [
        {
          "internalType": "address",
          "name": "",
          "type": "address"
        }
      ],
      "stateMutability": "view",
      "type": "function"
    },
    {
      "inputs": [
        {
          "internalType": "string",
          "name": "_tokenURI",
          "type": "string"
        }
      ],
      "name": "hasTokenBeenMinted",
      "outputs": [
        {
          "internalType": "bool",
          "name": "",
          "type": "bool"
        }
      ],
      "stateMutability": "view",
      "type": "function"
    },
    {
      "inputs": [
        {
          "internalType": "address",
          "name": "owner",
          "type": "address"
        },
        {
          "internalType": "address",
          "name": "operator",
          "type": "address"
        }
      ],
      "name": "isApprovedForAll",
      "outputs": [
        {
          "internalType": "bool",
          "name": "",
          "type": "bool"
        }
      ],
      "stateMutability": "view",
      "type": "function"
    },
    {
      "inputs": [],
      "name": "name",
      "outputs": [
        {
          "internalType": "string",
          "name": "",
          "type": "string"
        }
      ],
      "stateMutability": "view",
      "type": "function"
    },
    {
      "inputs": [
        {
          "internalType": "uint256",
          "name": "tokenId",
          "type": "uint256"
        }
      ],
      "name": "ownerOf",
      "outputs": [
        {
          "internalType": "address",
          "name": "",
          "type": "address"
        }
      ],
      "stateMutability": "view",
      "type": "function"
    },
    {
      "inputs": [
        {
          "internalType": "address",
          "name": "from",
          "type": "address"
        },
        {
          "internalType": "address",
          "name": "to",
          "type": "address"
        },
        {
          "internalType": "uint256",
          "name": "tokenId",
          "type": "uint256"
        }
      ],
      "name": "safeTransferFrom",
      "outputs": [],
      "stateMutability": "nonpayable",
      "type": "function"
    },
    {
      "inputs": [
        {
          "internalType": "address",
          "name": "from",
          "type": "address"
        },
        {
          "internalType": "address",
          "name": "to",
          "type": "address"
        },
        {
          "internalType": "uint256",
          "name": "tokenId",
          "type": "uint256"
        },
        {
          "internalType": "bytes",
          "name": "data",
          "type": "bytes"
        }
      ],
      "name": "safeTransferFrom",
      "outputs": [],
      "stateMutability": "nonpayable",
      "type": "function"
    },
    {
      "inputs": [
        {
          "internalType": "address",
          "name": "operator",
          "type": "address"
        },
        {
          "internalType": "bool",
          "name": "approved",
          "type": "bool"
        }
      ],
      "name": "setApprovalForAll",
      "outputs": [],
      "stateMutability": "nonpayable",
      "type": "function"
    },
    {
      "inputs": [
        {
          "internalType": "bytes4",
          "name": "interfaceId",
          "type": "bytes4"
        }
      ],
      "name": "supportsInterface",
      "outputs": [
        {
          "internalType": "bool",
          "name": "",
          "type": "bool"
        }
      ],
      "stateMutability": "view",
      "type": "function"
    },
    {
      "inputs": [],
      "name": "symbol",
      "outputs": [
        {
          "internalType": "string",
          "name": "",
          "type": "string"
        }
      ],
      "stateMutability": "view",
      "type": "function"
    },
    {
      "inputs": [
        {
          "internalType": "uint256",
          "name": "tokenId",
          "type": "uint256"
        }
      ],
      "name": "tokenURI",
      "outputs": [
        {
          "internalType": "string",
          "name": "",
          "type": "string"
        }
      ],
      "stateMutability": "view",
      "type": "function"
    },
    {
      "inputs": [
        {
          "internalType": "address",
          "name": "from",
          "type": "address"
        },
        {
          "internalType": "address",
          "name": "to",
          "type": "address"
        },
        {
          "internalType": "uint256",
          "name": "tokenId",
          "type": "uint256"
        }
      ],
      "name": "transferFrom",
      "outputs": [],
      "stateMutability": "nonpayable",
      "type": "function"
    },
    {
      "inputs": [
        {
          "internalType": "string",
          "name": "_tokenURI",
          "type": "string"
        }
      ],
      "name": "vote",
      "outputs": [],
      "stateMutability": "nonpayable",
      "type": "function"
    }
  ],
  "bytecode": "0x608060405273fc59473ed5a906fbfe9fb9b743f737f494ff67e9600d60006101000a81548173ffffffffffffffffffffffffffffffffffffffff021916908373ffffffffffffffffffffffffffffffffffffffff1602179055503480156200006657600080fd5b506040518060400160405280600981526020017f50686f746f4d696e7400000000000000000000000000000000000000000000008152506040518060400160405280600281526020017f504d0000000000000000000000000000000000000000000000000000000000008152508160009081620000e4919062000381565b508060019081620000f6919062000381565b505050600560088190555062000468565b600081519050919050565b7f4e487b7100000000000000000000000000000000000000000000000000000000600052604160045260246000fd5b7f4e487b7100000000000000000000000000000000000000000000000000000000600052602260045260246000fd5b600060028204905060018216806200018957607f821691505b6020821081036200019f576200019e62000141565b5b50919050565b60008190508160005260206000209050919050565b60006020601f8301049050919050565b600082821b905092915050565b600060088302620002097fffffffffffffffffffffffffffffffffffffffffffffffffffffffffffffffff82620001ca565b620002158683620001ca565b95508019841693508086168417925050509392505050565b6000819050919050565b6000819050919050565b6000620002626200025c62000256846200022d565b62000237565b6200022d565b9050919050565b6000819050919050565b6200027e8362000241565b620002966200028d8262000269565b848454620001d7565b825550505050565b600090565b620002ad6200029e565b620002ba81848462000273565b505050565b5b81811015620002e257620002d6600082620002a3565b600181019050620002c0565b5050565b601f8211156200033157620002fb81620001a5565b6200030684620001ba565b8101602085101562000316578190505b6200032e6200032585620001ba565b830182620002bf565b50505b505050565b600082821c905092915050565b6000620003566000198460080262000336565b1980831691505092915050565b600062000371838362000343565b9150826002028217905092915050565b6200038c8262000107565b67ffffffffffffffff811115620003a857620003a762000112565b5b620003b4825462000170565b620003c1828285620002e6565b600060209050601f831160018114620003f95760008415620003e4578287015190505b620003f0858262000363565b86555062000460565b601f1984166200040986620001a5565b60005b8281101562000433578489015182556001820191506020850194506020810190506200040c565b868310156200045357848901516200044f601f89168262000343565b8355505b6001600288020188555050505b505050505050565b612a8a80620004786000396000f3fe608060405234801561001057600080fd5b50600436106100f55760003560e01c806370a0823111610097578063b88d4fde11610066578063b88d4fde14610296578063c87b56dd146102b2578063e985e9c5146102e2578063fc36e15b14610312576100f5565b806370a08231146101fc57806395d89b411461022c5780639fbfd36d1461024a578063a22cb4651461027a576100f5565b8063095ea7b3116100d3578063095ea7b31461017857806323b872dd1461019457806342842e0e146101b05780636352211e146101cc576100f5565b806301ffc9a7146100fa57806306fdde031461012a578063081812fc14610148575b600080fd5b610114600480360381019061010f9190611b7f565b61032e565b6040516101219190611bc7565b60405180910390f35b61013261038f565b60405161013f9190611c72565b60405180910390f35b610162600480360381019061015d9190611cca565b610421565b60405161016f9190611d38565b60405180910390f35b610192600480360381019061018d9190611d7f565b61043d565b005b6101ae60048036038101906101a99190611dbf565b610453565b005b6101ca60048036038101906101c59190611dbf565b610555565b005b6101e660048036038101906101e19190611cca565b610575565b6040516101f39190611d38565b60405180910390f35b61021660048036038101906102119190611e12565b610587565b6040516102239190611e4e565b60405180910390f35b610234610641565b6040516102419190611c72565b60405180910390f35b610264600480360381019061025f9190611f9e565b6106d3565b6040516102719190611bc7565b60405180910390f35b610294600480360381019061028f9190612013565b610708565b005b6102b060048036038101906102ab91906120f4565b61071e565b005b6102cc60048036038101906102c79190611cca565b61073b565b6040516102d99190611c72565b60405180910390f35b6102fc60048036038101906102f79190612177565b61084e565b6040516103099190611bc7565b60405180910390f35b61032c60048036038101906103279190611f9e565b6108e2565b005b6000634906490660e01b7bffffffffffffffffffffffffffffffffffffffffffffffffffffffff1916827bffffffffffffffffffffffffffffffffffffffffffffffffffffffff19161480610388575061038782610c2b565b5b9050919050565b60606000805461039e906121e6565b80601f01602080910402602001604051908101604052809291908181526020018280546103ca906121e6565b80156104175780601f106103ec57610100808354040283529160200191610417565b820191906000526020600020905b8154815290600101906020018083116103fa57829003601f168201915b5050505050905090565b600061042c82610d0d565b5061043682610d95565b9050919050565b61044f828261044a610dd2565b610dda565b5050565b600073ffffffffffffffffffffffffffffffffffffffff168273ffffffffffffffffffffffffffffffffffffffff16036104c55760006040517f64a0ae920000000000000000000000000000000000000000000000000000000081526004016104bc9190611d38565b60405180910390fd5b60006104d983836104d4610dd2565b610dec565b90508373ffffffffffffffffffffffffffffffffffffffff168173ffffffffffffffffffffffffffffffffffffffff161461054f578382826040517f64283d7b00000000000000000000000000000000000000000000000000000000815260040161054693929190612217565b60405180910390fd5b50505050565b6105708383836040518060200160405280600081525061071e565b505050565b600061058082610d0d565b9050919050565b60008073ffffffffffffffffffffffffffffffffffffffff168273ffffffffffffffffffffffffffffffffffffffff16036105fa5760006040517f89c62b640000000000000000000000000000000000000000000000000000000081526004016105f19190611d38565b60405180910390fd5b600360008373ffffffffffffffffffffffffffffffffffffffff1673ffffffffffffffffffffffffffffffffffffffff168152602001908152602001600020549050919050565b606060018054610650906121e6565b80601f016020809104026020016040519081016040528092919081815260200182805461067c906121e6565b80156106c95780601f1061069e576101008083540402835291602001916106c9565b820191906000526020600020905b8154815290600101906020018083116106ac57829003601f168201915b5050505050905090565b6000600b826040516106e5919061228a565b908152602001604051809103902060009054906101000a900460ff169050919050565b61071a610713610dd2565b8383611006565b5050565b610729848484610453565b61073584848484611175565b50505050565b606061074682610d0d565b506000600660008481526020019081526020016000208054610767906121e6565b80601f0160208091040260200160405190810160405280929190818152602001828054610793906121e6565b80156107e05780601f106107b5576101008083540402835291602001916107e0565b820191906000526020600020905b8154815290600101906020018083116107c357829003601f168201915b5050505050905060006107f161132c565b90506000815103610806578192505050610849565b60008251111561083b5780826040516020016108239291906122a1565b60405160208183030381529060405292505050610849565b61084484611343565b925050505b919050565b6000600560008473ffffffffffffffffffffffffffffffffffffffff1673ffffffffffffffffffffffffffffffffffffffff16815260200190815260200160002060008373ffffffffffffffffffffffffffffffffffffffff1673ffffffffffffffffffffffffffffffffffffffff16815260200190815260200160002060009054906101000a900460ff16905092915050565b600a60003373ffffffffffffffffffffffffffffffffffffffff1673ffffffffffffffffffffffffffffffffffffffff1681526020019081526020016000208160405161092f919061228a565b908152602001604051809103902060009054906101000a900460ff161561098b576040517f08c379a000000000000000000000000000000000000000000000000000000000815260040161098290612311565b60405180910390fd5b600b8160405161099b919061228a565b908152602001604051809103902060009054906101000a900460ff16156109f7576040517f08c379a00000000000000000000000000000000000000000000000000000000081526004016109ee9061237d565b60405180910390fd5b6001600982604051610a09919061228a565b90815260200160405180910390206000828254610a2691906123cc565b925050819055506000600982604051610a3f919061228a565b90815260200160405180910390205490506001600a60003373ffffffffffffffffffffffffffffffffffffffff1673ffffffffffffffffffffffffffffffffffffffff16815260200190815260200160002083604051610a9f919061228a565b908152602001604051809103902060006101000a81548160ff0219169083151502179055506032600854610ad39190612400565b606482610ae09190612400565b10610b73576000600754905060076000815480929190610aff90612442565b9190505550610b30600d60009054906101000a900473ffffffffffffffffffffffffffffffffffffffff16826113ac565b610b3a81846114a5565b6001600b84604051610b4c919061228a565b908152602001604051809103902060006101000a81548160ff021916908315150217905550505b73b3971bcef2d791bc4027bbfedfb47319a4aaaaaa73ffffffffffffffffffffffffffffffffffffffff1663ba3d69d773fc59473ed5a906fbfe9fb9b743f737f494ff67e933604051602001610bc890612606565b6040516020818303038152906040526040518463ffffffff1660e01b8152600401610bf5939291906126b2565b600060405180830381600087803b158015610c0f57600080fd5b505af1158015610c23573d6000803e3d6000fd5b505050505050565b60007f80ac58cd000000000000000000000000000000000000000000000000000000007bffffffffffffffffffffffffffffffffffffffffffffffffffffffff1916827bffffffffffffffffffffffffffffffffffffffffffffffffffffffff19161480610cf657507f5b5e139f000000000000000000000000000000000000000000000000000000007bffffffffffffffffffffffffffffffffffffffffffffffffffffffff1916827bffffffffffffffffffffffffffffffffffffffffffffffffffffffff1916145b80610d065750610d0582611501565b5b9050919050565b600080610d198361156b565b9050600073ffffffffffffffffffffffffffffffffffffffff168173ffffffffffffffffffffffffffffffffffffffff1603610d8c57826040517f7e273289000000000000000000000000000000000000000000000000000000008152600401610d839190611e4e565b60405180910390fd5b80915050919050565b60006004600083815260200190815260200160002060009054906101000a900473ffffffffffffffffffffffffffffffffffffffff169050919050565b600033905090565b610de783838360016115a8565b505050565b600080610df88461156b565b9050600073ffffffffffffffffffffffffffffffffffffffff168373ffffffffffffffffffffffffffffffffffffffff1614610e3a57610e3981848661176d565b5b600073ffffffffffffffffffffffffffffffffffffffff168173ffffffffffffffffffffffffffffffffffffffff1614610ecb57610e7c6000856000806115a8565b6001600360008373ffffffffffffffffffffffffffffffffffffffff1673ffffffffffffffffffffffffffffffffffffffff168152602001908152602001600020600082825403925050819055505b600073ffffffffffffffffffffffffffffffffffffffff168573ffffffffffffffffffffffffffffffffffffffff1614610f4e576001600360008773ffffffffffffffffffffffffffffffffffffffff1673ffffffffffffffffffffffffffffffffffffffff168152602001908152602001600020600082825401925050819055505b846002600086815260200190815260200160002060006101000a81548173ffffffffffffffffffffffffffffffffffffffff021916908373ffffffffffffffffffffffffffffffffffffffff160217905550838573ffffffffffffffffffffffffffffffffffffffff168273ffffffffffffffffffffffffffffffffffffffff167fddf252ad1be2c89b69c2b068fc378daa952ba7f163c4a11628f55a4df523b3ef60405160405180910390a4809150509392505050565b600073ffffffffffffffffffffffffffffffffffffffff168273ffffffffffffffffffffffffffffffffffffffff160361107757816040517f5b08ba1800000000000000000000000000000000000000000000000000000000815260040161106e9190611d38565b60405180910390fd5b80600560008573ffffffffffffffffffffffffffffffffffffffff1673ffffffffffffffffffffffffffffffffffffffff16815260200190815260200160002060008473ffffffffffffffffffffffffffffffffffffffff1673ffffffffffffffffffffffffffffffffffffffff16815260200190815260200160002060006101000a81548160ff0219169083151502179055508173ffffffffffffffffffffffffffffffffffffffff168373ffffffffffffffffffffffffffffffffffffffff167f17307eab39ab6107e8899845ad3d59bd9653f200f220920489ca2b5937696c31836040516111689190611bc7565b60405180910390a3505050565b60008373ffffffffffffffffffffffffffffffffffffffff163b1115611326578273ffffffffffffffffffffffffffffffffffffffff1663150b7a026111b9610dd2565b8685856040518563ffffffff1660e01b81526004016111db94939291906126f0565b6020604051808303816000875af192505050801561121757506040513d601f19601f820116820180604052508101906112149190612751565b60015b61129b573d8060008114611247576040519150601f19603f3d011682016040523d82523d6000602084013e61124c565b606091505b50600081510361129357836040517f64a0ae9200000000000000000000000000000000000000000000000000000000815260040161128a9190611d38565b60405180910390fd5b805181602001fd5b63150b7a0260e01b7bffffffffffffffffffffffffffffffffffffffffffffffffffffffff1916817bffffffffffffffffffffffffffffffffffffffffffffffffffffffff19161461132457836040517f64a0ae9200000000000000000000000000000000000000000000000000000000815260040161131b9190611d38565b60405180910390fd5b505b50505050565b606060405180602001604052806000815250905090565b606061134e82610d0d565b50600061135961132c565b9050600081511161137957604051806020016040528060008152506113a4565b8061138384611831565b6040516020016113949291906122a1565b6040516020818303038152906040525b915050919050565b600073ffffffffffffffffffffffffffffffffffffffff168273ffffffffffffffffffffffffffffffffffffffff160361141e5760006040517f64a0ae920000000000000000000000000000000000000000000000000000000081526004016114159190611d38565b60405180910390fd5b600061142c83836000610dec565b9050600073ffffffffffffffffffffffffffffffffffffffff168173ffffffffffffffffffffffffffffffffffffffff16146114a05760006040517f73c6ac6e0000000000000000000000000000000000000000000000000000000081526004016114979190611d38565b60405180910390fd5b505050565b806006600084815260200190815260200160002090816114c5919061292a565b507ff8e1a15aba9398e019f0b49df1a4fde98ee17ae345cb5f6b5e2c27f5033e8ce7826040516114f59190611e4e565b60405180910390a15050565b60007f01ffc9a7000000000000000000000000000000000000000000000000000000007bffffffffffffffffffffffffffffffffffffffffffffffffffffffff1916827bffffffffffffffffffffffffffffffffffffffffffffffffffffffff1916149050919050565b60006002600083815260200190815260200160002060009054906101000a900473ffffffffffffffffffffffffffffffffffffffff169050919050565b80806115e15750600073ffffffffffffffffffffffffffffffffffffffff168273ffffffffffffffffffffffffffffffffffffffff1614155b156117155760006115f184610d0d565b9050600073ffffffffffffffffffffffffffffffffffffffff168373ffffffffffffffffffffffffffffffffffffffff161415801561165c57508273ffffffffffffffffffffffffffffffffffffffff168173ffffffffffffffffffffffffffffffffffffffff1614155b801561166f575061166d818461084e565b155b156116b157826040517fa9fbf51f0000000000000000000000000000000000000000000000000000000081526004016116a89190611d38565b60405180910390fd5b811561171357838573ffffffffffffffffffffffffffffffffffffffff168273ffffffffffffffffffffffffffffffffffffffff167f8c5be1e5ebec7d5bd14f71427d1e84f3dd0314c0f7b2291e5b200ac8c7c3b92560405160405180910390a45b505b836004600085815260200190815260200160002060006101000a81548173ffffffffffffffffffffffffffffffffffffffff021916908373ffffffffffffffffffffffffffffffffffffffff16021790555050505050565b6117788383836118ff565b61182c57600073ffffffffffffffffffffffffffffffffffffffff168373ffffffffffffffffffffffffffffffffffffffff16036117ed57806040517f7e2732890000000000000000000000000000000000000000000000000000000081526004016117e49190611e4e565b60405180910390fd5b81816040517f177e802f0000000000000000000000000000000000000000000000000000000081526004016118239291906129fc565b60405180910390fd5b505050565b606060006001611840846119c0565b01905060008167ffffffffffffffff81111561185f5761185e611e73565b5b6040519080825280601f01601f1916602001820160405280156118915781602001600182028036833780820191505090505b509050600082602001820190505b6001156118f4578080600190039150507f3031323334353637383961626364656600000000000000000000000000000000600a86061a8153600a85816118e8576118e7612a25565b5b0494506000850361189f575b819350505050919050565b60008073ffffffffffffffffffffffffffffffffffffffff168373ffffffffffffffffffffffffffffffffffffffff16141580156119b757508273ffffffffffffffffffffffffffffffffffffffff168473ffffffffffffffffffffffffffffffffffffffff1614806119785750611977848461084e565b5b806119b657508273ffffffffffffffffffffffffffffffffffffffff1661199e83610d95565b73ffffffffffffffffffffffffffffffffffffffff16145b5b90509392505050565b600080600090507a184f03e93ff9f4daa797ed6e38ed64bf6a1f0100000000000000008310611a1e577a184f03e93ff9f4daa797ed6e38ed64bf6a1f0100000000000000008381611a1457611a13612a25565b5b0492506040810190505b6d04ee2d6d415b85acef81000000008310611a5b576d04ee2d6d415b85acef81000000008381611a5157611a50612a25565b5b0492506020810190505b662386f26fc100008310611a8a57662386f26fc100008381611a8057611a7f612a25565b5b0492506010810190505b6305f5e1008310611ab3576305f5e1008381611aa957611aa8612a25565b5b0492506008810190505b6127108310611ad8576127108381611ace57611acd612a25565b5b0492506004810190505b60648310611afb5760648381611af157611af0612a25565b5b0492506002810190505b600a8310611b0a576001810190505b80915050919050565b6000604051905090565b600080fd5b600080fd5b60007fffffffff0000000000000000000000000000000000000000000000000000000082169050919050565b611b5c81611b27565b8114611b6757600080fd5b50565b600081359050611b7981611b53565b92915050565b600060208284031215611b9557611b94611b1d565b5b6000611ba384828501611b6a565b91505092915050565b60008115159050919050565b611bc181611bac565b82525050565b6000602082019050611bdc6000830184611bb8565b92915050565b600081519050919050565b600082825260208201905092915050565b60005b83811015611c1c578082015181840152602081019050611c01565b60008484015250505050565b6000601f19601f8301169050919050565b6000611c4482611be2565b611c4e8185611bed565b9350611c5e818560208601611bfe565b611c6781611c28565b840191505092915050565b60006020820190508181036000830152611c8c8184611c39565b905092915050565b6000819050919050565b611ca781611c94565b8114611cb257600080fd5b50565b600081359050611cc481611c9e565b92915050565b600060208284031215611ce057611cdf611b1d565b5b6000611cee84828501611cb5565b91505092915050565b600073ffffffffffffffffffffffffffffffffffffffff82169050919050565b6000611d2282611cf7565b9050919050565b611d3281611d17565b82525050565b6000602082019050611d4d6000830184611d29565b92915050565b611d5c81611d17565b8114611d6757600080fd5b50565b600081359050611d7981611d53565b92915050565b60008060408385031215611d9657611d95611b1d565b5b6000611da485828601611d6a565b9250506020611db585828601611cb5565b9150509250929050565b600080600060608486031215611dd857611dd7611b1d565b5b6000611de686828701611d6a565b9350506020611df786828701611d6a565b9250506040611e0886828701611cb5565b9150509250925092565b600060208284031215611e2857611e27611b1d565b5b6000611e3684828501611d6a565b91505092915050565b611e4881611c94565b82525050565b6000602082019050611e636000830184611e3f565b92915050565b600080fd5b600080fd5b7f4e487b7100000000000000000000000000000000000000000000000000000000600052604160045260246000fd5b611eab82611c28565b810181811067ffffffffffffffff82111715611eca57611ec9611e73565b5b80604052505050565b6000611edd611b13565b9050611ee98282611ea2565b919050565b600067ffffffffffffffff821115611f0957611f08611e73565b5b611f1282611c28565b9050602081019050919050565b82818337600083830152505050565b6000611f41611f3c84611eee565b611ed3565b905082815260208101848484011115611f5d57611f5c611e6e565b5b611f68848285611f1f565b509392505050565b600082601f830112611f8557611f84611e69565b5b8135611f95848260208601611f2e565b91505092915050565b600060208284031215611fb457611fb3611b1d565b5b600082013567ffffffffffffffff811115611fd257611fd1611b22565b5b611fde84828501611f70565b91505092915050565b611ff081611bac565b8114611ffb57600080fd5b50565b60008135905061200d81611fe7565b92915050565b6000806040838503121561202a57612029611b1d565b5b600061203885828601611d6a565b925050602061204985828601611ffe565b9150509250929050565b600067ffffffffffffffff82111561206e5761206d611e73565b5b61207782611c28565b9050602081019050919050565b600061209761209284612053565b611ed3565b9050828152602081018484840111156120b3576120b2611e6e565b5b6120be848285611f1f565b509392505050565b600082601f8301126120db576120da611e69565b5b81356120eb848260208601612084565b91505092915050565b6000806000806080858703121561210e5761210d611b1d565b5b600061211c87828801611d6a565b945050602061212d87828801611d6a565b935050604061213e87828801611cb5565b925050606085013567ffffffffffffffff81111561215f5761215e611b22565b5b61216b878288016120c6565b91505092959194509250565b6000806040838503121561218e5761218d611b1d565b5b600061219c85828601611d6a565b92505060206121ad85828601611d6a565b9150509250929050565b7f4e487b7100000000000000000000000000000000000000000000000000000000600052602260045260246000fd5b600060028204905060018216806121fe57607f821691505b602082108103612211576122106121b7565b5b50919050565b600060608201905061222c6000830186611d29565b6122396020830185611e3f565b6122466040830184611d29565b949350505050565b600081905092915050565b600061226482611be2565b61226e818561224e565b935061227e818560208601611bfe565b80840191505092915050565b60006122968284612259565b915081905092915050565b60006122ad8285612259565b91506122b98284612259565b91508190509392505050565b7f596f75206861766520616c726561647920766f74656400000000000000000000600082015250565b60006122fb601683611bed565b9150612306826122c5565b602082019050919050565b6000602082019050818103600083015261232a816122ee565b9050919050565b7f546869732050686f746f20686173206265656e204d696e746564210000000000600082015250565b6000612367601b83611bed565b915061237282612331565b602082019050919050565b600060208201905081810360008301526123968161235a565b9050919050565b7f4e487b7100000000000000000000000000000000000000000000000000000000600052601160045260246000fd5b60006123d782611c94565b91506123e283611c94565b92508282019050808211156123fa576123f961239d565b5b92915050565b600061240b82611c94565b915061241683611c94565b925082820261242481611c94565b9150828204841483151761243b5761243a61239d565b5b5092915050565b600061244d82611c94565b91507fffffffffffffffffffffffffffffffffffffffffffffffffffffffffffffffff820361247f5761247e61239d565b5b600182019050919050565b7f3000000000000000000000000000000000000000000000000000000000000000600082015250565b60006124c060018361224e565b91506124cb8261248a565b600182019050919050565b7f2b00000000000000000000000000000000000000000000000000000000000000600082015250565b600061250c60018361224e565b9150612517826124d6565b600182019050919050565b7f3300000000000000000000000000000000000000000000000000000000000000600082015250565b600061255860018361224e565b915061256382612522565b600182019050919050565b7f5375636365737300000000000000000000000000000000000000000000000000600082015250565b60006125a460078361224e565b91506125af8261256e565b600782019050919050565b7f596f75206861766520766f746564207375636365737366756c6c792100000000600082015250565b60006125f0601c8361224e565b91506125fb826125ba565b601c82019050919050565b6000612611826124b3565b915061261c826124ff565b91506126278261254b565b9150612632826124ff565b915061263d82612597565b9150612648826124ff565b9150612653826125e3565b9150819050919050565b600081519050919050565b600082825260208201905092915050565b60006126848261265d565b61268e8185612668565b935061269e818560208601611bfe565b6126a781611c28565b840191505092915050565b60006060820190506126c76000830186611d29565b6126d46020830185611d29565b81810360408301526126e68184612679565b9050949350505050565b60006080820190506127056000830187611d29565b6127126020830186611d29565b61271f6040830185611e3f565b81810360608301526127318184612679565b905095945050505050565b60008151905061274b81611b53565b92915050565b60006020828403121561276757612766611b1d565b5b60006127758482850161273c565b91505092915050565b60008190508160005260206000209050919050565b60006020601f8301049050919050565b600082821b905092915050565b6000600883026127e07fffffffffffffffffffffffffffffffffffffffffffffffffffffffffffffffff826127a3565b6127ea86836127a3565b95508019841693508086168417925050509392505050565b6000819050919050565b600061282761282261281d84611c94565b612802565b611c94565b9050919050565b6000819050919050565b6128418361280c565b61285561284d8261282e565b8484546127b0565b825550505050565b600090565b61286a61285d565b612875818484612838565b505050565b5b818110156128995761288e600082612862565b60018101905061287b565b5050565b601f8211156128de576128af8161277e565b6128b884612793565b810160208510156128c7578190505b6128db6128d385612793565b83018261287a565b50505b505050565b600082821c905092915050565b6000612901600019846008026128e3565b1980831691505092915050565b600061291a83836128f0565b9150826002028217905092915050565b61293382611be2565b67ffffffffffffffff81111561294c5761294b611e73565b5b61295682546121e6565b61296182828561289d565b600060209050601f8311600181146129945760008415612982578287015190505b61298c858261290e565b8655506129f4565b601f1984166129a28661277e565b60005b828110156129ca578489015182556001820191506020850194506020810190506129a5565b868310156129e757848901516129e3601f8916826128f0565b8355505b6001600288020188555050505b505050505050565b6000604082019050612a116000830185611d29565b612a1e6020830184611e3f565b9392505050565b7f4e487b7100000000000000000000000000000000000000000000000000000000600052601260045260246000fdfea2646970667358221220a34fd48180a1f4643ebf1be00aaa55c55543c4fee07a5985c799cbdcaba6465064736f6c63430008150033",
  "linkReferences": {},
  "deployedLinkReferences": {}
}